{
  "contractName": "Coinflip",
  "abi": [
    {
      "inputs": [],
      "payable": false,
      "stateMutability": "nonpayable",
      "type": "constructor"
    },
    {
      "anonymous": false,
      "inputs": [
        {
          "indexed": false,
          "internalType": "uint256",
          "name": "id",
          "type": "uint256"
        },
        {
          "indexed": false,
          "internalType": "uint256",
          "name": "amount",
          "type": "uint256"
        }
      ],
      "name": "betCreated",
      "type": "event"
    },
    {
      "anonymous": false,
      "inputs": [
        {
          "indexed": false,
          "internalType": "uint256",
          "name": "id",
          "type": "uint256"
        },
        {
          "indexed": false,
          "internalType": "uint256",
          "name": "amount",
          "type": "uint256"
        },
        {
          "indexed": false,
          "internalType": "bool",
          "name": "won",
          "type": "bool"
        }
      ],
      "name": "betSettled",
      "type": "event"
    },
    {
      "anonymous": false,
      "inputs": [
        {
          "indexed": false,
          "internalType": "uint256",
          "name": "randomNumber",
          "type": "uint256"
        }
      ],
      "name": "generatedRandomNumber",
      "type": "event"
    },
    {
      "anonymous": false,
      "inputs": [
        {
          "indexed": false,
          "internalType": "string",
          "name": "description",
          "type": "string"
        }
      ],
      "name": "logNewProvableQuery",
      "type": "event"
    },
    {
      "constant": true,
      "inputs": [],
      "name": "balance",
      "outputs": [
        {
          "internalType": "uint256",
          "name": "",
          "type": "uint256"
        }
      ],
      "payable": false,
      "stateMutability": "view",
      "type": "function"
    },
    {
      "constant": false,
      "inputs": [
        {
          "internalType": "bytes32",
          "name": "_myid",
          "type": "bytes32"
        },
        {
          "internalType": "string",
          "name": "_result",
          "type": "string"
        }
      ],
      "name": "__callback",
      "outputs": [],
      "payable": false,
      "stateMutability": "nonpayable",
      "type": "function"
    },
    {
      "constant": false,
      "inputs": [
        {
          "internalType": "bytes32",
          "name": "_queryId",
          "type": "bytes32"
        },
        {
          "internalType": "string",
          "name": "_result",
          "type": "string"
        },
        {
          "internalType": "bytes",
          "name": "_proof",
          "type": "bytes"
        }
      ],
      "name": "__callback",
      "outputs": [],
      "payable": false,
      "stateMutability": "nonpayable",
      "type": "function"
    },
    {
      "constant": false,
      "inputs": [],
      "name": "update",
      "outputs": [],
      "payable": true,
      "stateMutability": "payable",
      "type": "function"
    },
    {
      "constant": false,
      "inputs": [],
      "name": "testRandom",
      "outputs": [
        {
          "internalType": "bytes32",
          "name": "",
          "type": "bytes32"
        }
      ],
      "payable": false,
      "stateMutability": "nonpayable",
      "type": "function"
    },
    {
      "constant": false,
      "inputs": [],
      "name": "createBet",
      "outputs": [],
      "payable": true,
      "stateMutability": "payable",
      "type": "function"
    },
    {
      "constant": true,
      "inputs": [],
      "name": "getBalance",
      "outputs": [
        {
          "internalType": "uint256",
          "name": "bal",
          "type": "uint256"
        }
      ],
      "payable": false,
      "stateMutability": "view",
      "type": "function"
    },
    {
      "constant": false,
      "inputs": [],
      "name": "deposit",
      "outputs": [],
      "payable": true,
      "stateMutability": "payable",
      "type": "function"
    },
    {
      "constant": true,
      "inputs": [],
      "name": "settleBet",
      "outputs": [
        {
          "internalType": "uint256",
          "name": "num",
          "type": "uint256"
        }
      ],
      "payable": false,
      "stateMutability": "view",
      "type": "function"
    },
    {
      "constant": false,
      "inputs": [],
      "name": "payOut",
      "outputs": [],
      "payable": true,
      "stateMutability": "payable",
      "type": "function"
    },
    {
      "constant": false,
      "inputs": [
        {
          "internalType": "uint256",
          "name": "num",
          "type": "uint256"
        }
      ],
      "name": "closeBet",
      "outputs": [],
      "payable": false,
      "stateMutability": "nonpayable",
      "type": "function"
    }
  ],
  "bytecode": "0x608060405260016005553480156200001657600080fd5b50620000276200002d60201b60201c565b62002192565b6000809050600062030d4090506200004a6200013b60201b60201c565b600860003373ffffffffffffffffffffffffffffffffffffffff1673ffffffffffffffffffffffffffffffffffffffff16815260200190815260200160002060020181905550620000a582600554836200021a60201b60201c565b600860003373ffffffffffffffffffffffffffffffffffffffff1673ffffffffffffffffffffffffffffffffffffffff168152602001908152602001600020600201819055507f94f2559b5e2b297de3db1587daf2352e872ada3dad01dab9ee3733592fa22ed3604051808060200182810382526034815260200180620049a16034913960400191505060405180910390a15050565b60008033604051602001808273ffffffffffffffffffffffffffffffffffffffff1673ffffffffffffffffffffffffffffffffffffffff1660601b815260140191505060405160208183030381529060405280519060200120905062000213816040518060400160405280600181526020017f31000000000000000000000000000000000000000000000000000000000000008152506040518060400160405280600481526020017f7465737400000000000000000000000000000000000000000000000000000000815250620007ed60201b60201c565b8091505090565b600080831180156200022d575060208311155b6200023757600080fd5b600a84029350606060016040519080825280601f01601f191660200182016040528015620002745781602001600182028038833980820191505090505b5090508360f81b816000815181106200028957fe5b60200101907effffffffffffffffffffffffffffffffffffffffffffffffffffffffffffff1916908160001a905350606060206040519080825280601f01601f191660200182016040528015620002ef5781602001600182028038833980820191505090505b509050606060206040519080825280601f01601f191660200182016040528015620003295781602001600182028038833980820191505090505b50905060006200033e620008b760201b60201c565b905060208352424118600143034018602084015260208252806020830152606060206040519080825280601f01601f191660200182016040528015620003935781602001600182028038833980820191505090505b509050886020820152606060086040519080825280601f01601f191660200182016040528015620003d35781602001600182028038833980820191505090505b509050620003ee826018600884600062000bf060201b60201c565b50620003f9620020a1565b60405180608001604052808781526020018881526020018681526020018481525090506000620004666040518060400160405280600681526020017f72616e646f6d0000000000000000000000000000000000000000000000000000815250838c62000c5260201b60201c565b9050606060086040519080825280601f01601f1916602001820160405280156200049f5781602001600182028038833980820191505090505b50905060208401517f0100000000000000000000000000000000000000000000000000000000000000810460278301537e01000000000000000000000000000000000000000000000000000000000000810460268301537d010000000000000000000000000000000000000000000000000000000000810460258301537c0100000000000000000000000000000000000000000000000000000000810460248301537b01000000000000000000000000000000000000000000000000000000810460238301537a010000000000000000000000000000000000000000000000000000810460228301537901000000000000000000000000000000000000000000000000008104602183015378010000000000000000000000000000000000000000000000008104602083015350620007da828285600160048110620005e057fe5b6020020151600287600060048110620005f557fe5b60200201516040518082805190602001908083835b602083106200062f57805182526020820191506020810190506020830392506200060a565b6001836020036101000a038019825116818451168082178552505050505050905001915050602060405180830381855afa15801562000672573d6000803e3d6000fd5b5050506040513d60208110156200068857600080fd5b810190808051906020019092919050505087600260048110620006a757fe5b60200201516040516020018085805190602001908083835b60208310620006e45780518252602082019150602081019050602083039250620006bf565b6001836020036101000a03801982511681845116808217855250505050505090500184805190602001908083835b6020831062000737578051825260208201915060208101905060208303925062000712565b6001836020036101000a03801982511681845116808217855250505050505090500183815260200182805190602001908083835b602083106200079057805182526020820191506020810190506020830392506200076b565b6001836020036101000a0380198251168184511680821785525050505050509050019450505050506040516020818303038152906040528051906020012062000fea60201b60201c565b8199505050505050505050509392505050565b60006002836040516020018082805190602001908083835b602083106200082a578051825260208201915060208101905060208303925062000805565b6001836020036101000a0380198251168184511680821785525050505050509050019150506040516020818303038152906040528051906020012060001c816200087057fe5b069050806006819055507fc13d60fe9dffdb6908d2d446cd18134373a51db0738ee04f296eeb9128121cbc816040518082815260200191505060405180910390a150505050565b60008073ffffffffffffffffffffffffffffffffffffffff16600160009054906101000a900473ffffffffffffffffffffffffffffffffffffffff1673ffffffffffffffffffffffffffffffffffffffff161480620009485750600062000946600160009054906101000a900473ffffffffffffffffffffffffffffffffffffffff166200100660201b60201c565b145b1562000962576200096060006200101160201b60201c565b505b600160009054906101000a900473ffffffffffffffffffffffffffffffffffffffff1673ffffffffffffffffffffffffffffffffffffffff166338cc48316040518163ffffffff1660e01b8152600401602060405180830381600087803b158015620009cd57600080fd5b505af1158015620009e2573d6000803e3d6000fd5b505050506040513d6020811015620009f957600080fd5b810190808051906020019092919050505073ffffffffffffffffffffffffffffffffffffffff166000809054906101000a900473ffffffffffffffffffffffffffffffffffffffff1673ffffffffffffffffffffffffffffffffffffffff161462000b4657600160009054906101000a900473ffffffffffffffffffffffffffffffffffffffff1673ffffffffffffffffffffffffffffffffffffffff166338cc48316040518163ffffffff1660e01b8152600401602060405180830381600087803b15801562000ac957600080fd5b505af115801562000ade573d6000803e3d6000fd5b505050506040513d602081101562000af557600080fd5b81019080805190602001909291905050506000806101000a81548173ffffffffffffffffffffffffffffffffffffffff021916908373ffffffffffffffffffffffffffffffffffffffff1602179055505b6000809054906101000a900473ffffffffffffffffffffffffffffffffffffffff1673ffffffffffffffffffffffffffffffffffffffff1663abaa5f3e6040518163ffffffff1660e01b815260040160206040518083038186803b15801562000bae57600080fd5b505afa15801562000bc3573d6000803e3d6000fd5b505050506040513d602081101562000bda57600080fd5b8101908080519060200190929190505050905090565b606060008285019050808451101562000c0857600080fd5b600086602001905060008460200190505b86886020010182101562000c43578189015180828801525060208201915060208101905062000c19565b85935050505095945050505050565b60008073ffffffffffffffffffffffffffffffffffffffff16600160009054906101000a900473ffffffffffffffffffffffffffffffffffffffff1673ffffffffffffffffffffffffffffffffffffffff16148062000ce35750600062000ce1600160009054906101000a900473ffffffffffffffffffffffffffffffffffffffff166200100660201b60201c565b145b1562000cfd5762000cfb60006200101160201b60201c565b505b600160009054906101000a900473ffffffffffffffffffffffffffffffffffffffff1673ffffffffffffffffffffffffffffffffffffffff166338cc48316040518163ffffffff1660e01b8152600401602060405180830381600087803b15801562000d6857600080fd5b505af115801562000d7d573d6000803e3d6000fd5b505050506040513d602081101562000d9457600080fd5b810190808051906020019092919050505073ffffffffffffffffffffffffffffffffffffffff166000809054906101000a900473ffffffffffffffffffffffffffffffffffffffff1673ffffffffffffffffffffffffffffffffffffffff161462000ee157600160009054906101000a900473ffffffffffffffffffffffffffffffffffffffff1673ffffffffffffffffffffffffffffffffffffffff166338cc48316040518163ffffffff1660e01b8152600401602060405180830381600087803b15801562000e6457600080fd5b505af115801562000e79573d6000803e3d6000fd5b505050506040513d602081101562000e9057600080fd5b81019080805190602001909291905050506000806101000a81548173ffffffffffffffffffffffffffffffffffffffff021916908373ffffffffffffffffffffffffffffffffffffffff1602179055505b6060600460405190808252806020026020018201604052801562000f1a57816020015b606081526020019060019003908162000f045790505b5090508360006004811062000f2b57fe5b60200201518160008151811062000f3e57fe5b60200260200101819052508360016004811062000f5757fe5b60200201518160018151811062000f6a57fe5b60200260200101819052508360026004811062000f8357fe5b60200201518160028151811062000f9657fe5b60200260200101819052508360036004811062000faf57fe5b60200201518160038151811062000fc257fe5b602002602001018190525062000fe08582856200102a60201b60201c565b9150509392505050565b8060036000848152602001908152602001600020819055505050565b6000813b9050919050565b600062001023620015be60201b60201c565b9050919050565b60008073ffffffffffffffffffffffffffffffffffffffff16600160009054906101000a900473ffffffffffffffffffffffffffffffffffffffff1673ffffffffffffffffffffffffffffffffffffffff161480620010bb57506000620010b9600160009054906101000a900473ffffffffffffffffffffffffffffffffffffffff166200100660201b60201c565b145b15620010d557620010d360006200101160201b60201c565b505b600160009054906101000a900473ffffffffffffffffffffffffffffffffffffffff1673ffffffffffffffffffffffffffffffffffffffff166338cc48316040518163ffffffff1660e01b8152600401602060405180830381600087803b1580156200114057600080fd5b505af115801562001155573d6000803e3d6000fd5b505050506040513d60208110156200116c57600080fd5b810190808051906020019092919050505073ffffffffffffffffffffffffffffffffffffffff166000809054906101000a900473ffffffffffffffffffffffffffffffffffffffff1673ffffffffffffffffffffffffffffffffffffffff1614620012b957600160009054906101000a900473ffffffffffffffffffffffffffffffffffffffff1673ffffffffffffffffffffffffffffffffffffffff166338cc48316040518163ffffffff1660e01b8152600401602060405180830381600087803b1580156200123c57600080fd5b505af115801562001251573d6000803e3d6000fd5b505050506040513d60208110156200126857600080fd5b81019080805190602001909291905050506000806101000a81548173ffffffffffffffffffffffffffffffffffffffff021916908373ffffffffffffffffffffffffffffffffffffffff1602179055505b60008060009054906101000a900473ffffffffffffffffffffffffffffffffffffffff1673ffffffffffffffffffffffffffffffffffffffff16632ef3accc86856040518363ffffffff1660e01b81526004018080602001838152602001828103825284818151815260200191508051906020019080838360005b838110156200135157808201518184015260208101905062001334565b50505050905090810190601f1680156200137f5780820380516001836020036101000a031916815260200191505b509350505050602060405180830381600087803b158015620013a057600080fd5b505af1158015620013b5573d6000803e3d6000fd5b505050506040513d6020811015620013cc57600080fd5b81019080805190602001909291905050509050823a02670de0b6b3a76400000181111562001401576000801b915050620015b7565b6060620014148562001b8d60201b60201c565b90506000809054906101000a900473ffffffffffffffffffffffffffffffffffffffff1673ffffffffffffffffffffffffffffffffffffffff1663c55c1cb68360008985896040518663ffffffff1660e01b8152600401808581526020018060200180602001848152602001838103835286818151815260200191508051906020019080838360005b83811015620014ba5780820151818401526020810190506200149d565b50505050905090810190601f168015620014e85780820380516001836020036101000a031916815260200191505b50838103825285818151815260200191508051906020019080838360005b838110156200152357808201518184015260208101905062001506565b50505050905090810190601f168015620015515780820380516001836020036101000a031916815260200191505b5096505050505050506020604051808303818588803b1580156200157457600080fd5b505af115801562001589573d6000803e3d6000fd5b50505050506040513d6020811015620015a157600080fd5b8101908080519060200190929190505050925050505b9392505050565b600080620015e6731d3b2638a7cc9f2cb3d298a3da7a90b67e5506ed6200100660201b60201c565b11156200169257731d3b2638a7cc9f2cb3d298a3da7a90b67e5506ed600160006101000a81548173ffffffffffffffffffffffffffffffffffffffff021916908373ffffffffffffffffffffffffffffffffffffffff160217905550620016886040518060400160405280600b81526020017f6574685f6d61696e6e657400000000000000000000000000000000000000000081525062001c4860201b60201c565b6001905062001b8a565b6000620016b973c03a2615d5efaf5f49f60b7bb6583eaec212fdf16200100660201b60201c565b1115620017655773c03a2615d5efaf5f49f60b7bb6583eaec212fdf1600160006101000a81548173ffffffffffffffffffffffffffffffffffffffff021916908373ffffffffffffffffffffffffffffffffffffffff1602179055506200175b6040518060400160405280600c81526020017f6574685f726f707374656e33000000000000000000000000000000000000000081525062001c4860201b60201c565b6001905062001b8a565b60006200178c73b7a07bcf2ba2f2703b24c0691b5278999c59ac7e6200100660201b60201c565b1115620018385773b7a07bcf2ba2f2703b24c0691b5278999c59ac7e600160006101000a81548173ffffffffffffffffffffffffffffffffffffffff021916908373ffffffffffffffffffffffffffffffffffffffff1602179055506200182e6040518060400160405280600981526020017f6574685f6b6f76616e000000000000000000000000000000000000000000000081525062001c4860201b60201c565b6001905062001b8a565b60006200185f73146500cfd35b22e4a392fe0adc06de1a1368ed486200100660201b60201c565b11156200190b5773146500cfd35b22e4a392fe0adc06de1a1368ed48600160006101000a81548173ffffffffffffffffffffffffffffffffffffffff021916908373ffffffffffffffffffffffffffffffffffffffff160217905550620019016040518060400160405280600b81526020017f6574685f72696e6b65627900000000000000000000000000000000000000000081525062001c4860201b60201c565b6001905062001b8a565b60006200193273a2998efd205fb9d4b4963afb70778d6354ad3a416200100660201b60201c565b1115620019de5773a2998efd205fb9d4b4963afb70778d6354ad3a41600160006101000a81548173ffffffffffffffffffffffffffffffffffffffff021916908373ffffffffffffffffffffffffffffffffffffffff160217905550620019d46040518060400160405280600a81526020017f6574685f676f65726c690000000000000000000000000000000000000000000081525062001c4860201b60201c565b6001905062001b8a565b600062001a05736f485c8bf6fc43ea212e93bbf8ce046c7f1cb4756200100660201b60201c565b111562001a6b57736f485c8bf6fc43ea212e93bbf8ce046c7f1cb475600160006101000a81548173ffffffffffffffffffffffffffffffffffffffff021916908373ffffffffffffffffffffffffffffffffffffffff1602179055506001905062001b8a565b600062001a927320e12a1f859b3feae5fb2a0a32c18f5a65555bbf6200100660201b60201c565b111562001af8577320e12a1f859b3feae5fb2a0a32c18f5a65555bbf600160006101000a81548173ffffffffffffffffffffffffffffffffffffffff021916908373ffffffffffffffffffffffffffffffffffffffff1602179055506001905062001b8a565b600062001b1f7351efaf4c8b3c9afbd5ab9f4bbc82784ab6ef8faa6200100660201b60201c565b111562001b85577351efaf4c8b3c9afbd5ab9f4bbc82784ab6ef8faa600160006101000a81548173ffffffffffffffffffffffffffffffffffffffff021916908373ffffffffffffffffffffffffffffffffffffffff1602179055506001905062001b8a565b600090505b90565b606062001b9f62001c6460201b60201c565b62001ba9620020c9565b62001bc28161040062001c7060201b620023061760201c565b62001bd88162001cbd60201b620023501760201c565b60008090505b835181101562001c245762001c1684828151811062001bf957fe5b60200260200101518362001cd360201b6200235e1790919060201c565b808060010191505062001bde565b5062001c3b8162001d0760201b620023831760201c565b8060000151915050919050565b806002908051906020019062001c60929190620020e3565b5050565b60405180590338823950565b600081905060006020828162001c8257fe5b061462001c9d576020818162001c9457fe5b06602003810190505b808360200181815250506040518084526000815281810160405250505050565b62001cd081600462001d1d60201b60201c565b50565b62001ce8826002835162001d4560201b60201c565b62001d02818362001ecd60201b620024f21790919060201c565b505050565b62001d1a81600762001d1d60201b60201c565b50565b62001d41601f60058360ff16901b178362001f8d60201b6200259d1790919060201c565b5050565b6017811162001d7a5762001d748160058460ff16901b60ff16178462001f8d60201b6200259d1790919060201c565b62001ec8565b60ff811162001dcb5762001da7601860058460ff16901b178462001f8d60201b6200259d1790919060201c565b62001dc48160018562001fd660201b620025dd179092919060201c565b5062001ec7565b61ffff811162001e1d5762001df9601960058460ff16901b178462001f8d60201b6200259d1790919060201c565b62001e168160028562001fd660201b620025dd179092919060201c565b5062001ec6565b63ffffffff811162001e715762001e4d601a60058460ff16901b178462001f8d60201b6200259d1790919060201c565b62001e6a8160048562001fd660201b620025dd179092919060201c565b5062001ec5565b67ffffffffffffffff811162001ec45762001ea5601b60058460ff16901b178462001f8d60201b6200259d1790919060201c565b62001ec28160088562001fd660201b620025dd179092919060201c565b505b5b5b5b5b505050565b62001ed7620020c9565b8260200151836000015151835101111562001f185762001f1783600262001f0a866020015186516200205060201b60201c565b026200206e60201b60201c565b5b60008060008451905085518051602081830101945086518101825260208701935050505b6020811062001f61578151835260208301925060208201915060208103905062001f3c565b60006001826020036101000a039050801983511681855116818117865250508694505050505092915050565b8160200151600183600001515101111562001fbc5762001fbb8260028460200151026200206e60201b60201c565b5b815180516020818301018381536001820183525050505050565b62001fe0620020c9565b8360200151846000015151830111156200201f576200201e846002620020118760200151866200205060201b60201c565b026200206e60201b60201c565b5b60006001836101000a0390508451805184818301018684198251161781528582018352505050849150509392505050565b600081831115620020645782905062002068565b8190505b92915050565b60608260000151905062002089838362001c7060201b60201c565b6200209b838262001ecd60201b60201c565b50505050565b60405180608001604052806004905b6060815260200190600190039081620020b05790505090565b604051806040016040528060608152602001600081525090565b828054600181600116156101000203166002900490600052602060002090601f016020900481019282601f106200212657805160ff191683800117855562002157565b8280016001018555821562002157579182015b828111156200215657825182559160200191906001019062002139565b5b5090506200216691906200216a565b5090565b6200218f91905b808211156200218b57600081600090555060010162002171565b5090565b90565b6127ff80620021a26000396000f3fe60806040526004361061009c5760003560e01c8063a2e6204511610064578063a2e620451461036d578063b69ef8a814610377578063c2052403146103a2578063d0e30db0146103ac578063dec9ba44146103b6578063fbddd14b146103c05761009c565b806312065fe0146100a157806327dc297e146100cc57806338bbfa501461019e5780638e4bf82014610307578063a24beff714610332575b600080fd5b3480156100ad57600080fd5b506100b66103eb565b6040518082815260200191505060405180910390f35b3480156100d857600080fd5b5061019c600480360360408110156100ef57600080fd5b81019080803590602001909291908035906020019064010000000081111561011657600080fd5b82018360208201111561012857600080fd5b8035906020019184600183028401116401000000008311171561014a57600080fd5b91908080601f016020809104026020016040519081016040528093929190818152602001838380828437600081840152601f19601f8201169050808301925050505050505091929192905050506103f5565b005b3480156101aa57600080fd5b50610305600480360360608110156101c157600080fd5b8101908080359060200190929190803590602001906401000000008111156101e857600080fd5b8201836020820111156101fa57600080fd5b8035906020019184600183028401116401000000008311171561021c57600080fd5b91908080601f016020809104026020016040519081016040528093929190818152602001838380828437600081840152601f19601f8201169050808301925050505050505091929192908035906020019064010000000081111561027f57600080fd5b82018360208201111561029157600080fd5b803590602001918460018302840111640100000000831117156102b357600080fd5b91908080601f016020809104026020016040519081016040528093929190818152602001838380828437600081840152601f19601f820116905080830192505050505050509192919290505050610438565b005b34801561031357600080fd5b5061031c6104ff565b6040518082815260200191505060405180910390f35b34801561033e57600080fd5b5061036b6004803603602081101561035557600080fd5b8101908080359060200190929190505050610509565b005b6103756106ef565b005b34801561038357600080fd5b5061038c6107ec565b6040518082815260200191505060405180910390f35b6103aa6107f2565b005b6103b461085a565b005b6103be61086c565b005b3480156103cc57600080fd5b506103d561098a565b6040518082815260200191505060405180910390f35b6000600754905090565b610434828260006040519080825280601f01601f19166020018201604052801561042e5781602001600182028038833980820191505090505b50610438565b5050565b60006002836040516020018082805190602001908083835b602083106104735780518252602082019150602081019050602083039250610450565b6001836020036101000a0380198251168184511680821785525050505050509050019150506040516020818303038152906040528051906020012060001c816104b857fe5b069050806006819055507fc13d60fe9dffdb6908d2d446cd18134373a51db0738ee04f296eeb9128121cbc816040518082815260200191505060405180910390a150505050565b6000600654905090565b6000811415610572576001600860003373ffffffffffffffffffffffffffffffffffffffff1673ffffffffffffffffffffffffffffffffffffffff16815260200190815260200160002060030160006101000a81548160ff0219169083151502179055506105ce565b6000600860003373ffffffffffffffffffffffffffffffffffffffff1673ffffffffffffffffffffffffffffffffffffffff16815260200190815260200160002060030160006101000a81548160ff0219169083151502179055505b7f52beed6ac35f22cb31fc00e7a94c5087a6ded287b8a5c2eed55467ec7f86acc7600860003373ffffffffffffffffffffffffffffffffffffffff1673ffffffffffffffffffffffffffffffffffffffff16815260200190815260200160002060000154600860003373ffffffffffffffffffffffffffffffffffffffff1673ffffffffffffffffffffffffffffffffffffffff16815260200190815260200160002060010154600860003373ffffffffffffffffffffffffffffffffffffffff1673ffffffffffffffffffffffffffffffffffffffff16815260200190815260200160002060030160009054906101000a900460ff166040518084815260200183815260200182151515158152602001935050505060405180910390a150565b6000809050600062030d40905061070461098a565b600860003373ffffffffffffffffffffffffffffffffffffffff1673ffffffffffffffffffffffffffffffffffffffff168152602001908152602001600020600201819055506107578260055483610a61565b600860003373ffffffffffffffffffffffffffffffffffffffff1673ffffffffffffffffffffffffffffffffffffffff168152602001908152602001600020600201819055507f94f2559b5e2b297de3db1587daf2352e872ada3dad01dab9ee3733592fa22ed36040518080602001828103825260348152602001806127976034913960400191505060405180910390a15050565b60075481565b671bc16d674ec80000600754101561080957600080fd5b3373ffffffffffffffffffffffffffffffffffffffff166108fc671bc16d674ec800009081150290604051600060405180830381858888f19350505050158015610857573d6000803e3d6000fd5b50565b34600760008282540192505081905550565b670de0b6b3a76400008034101561088257600080fd5b670de0b6b3a764000034101561089757600080fd5b346007600082825401925050819055506108af612683565b670de0b6b3a76400008160200181815250506108ca81610ffc565b60093390806001815401808255809150509060018203906000526020600020016000909192909190916101000a81548173ffffffffffffffffffffffffffffffffffffffff021916908373ffffffffffffffffffffffffffffffffffffffff160217905550506009805490508160000181815250507f86ad1420ce44ea99a900d4b2c7ce1b59b8530779d112d0c63418a91cde6645a281600001518260200151604051808381526020018281526020019250505060405180910390a15050565b60008033604051602001808273ffffffffffffffffffffffffffffffffffffffff1673ffffffffffffffffffffffffffffffffffffffff1660601b8152601401915050604051602081830303815290604052805190602001209050610a5a816040518060400160405280600181526020017f31000000000000000000000000000000000000000000000000000000000000008152506040518060400160405280600481526020017f7465737400000000000000000000000000000000000000000000000000000000815250610438565b8091505090565b60008083118015610a73575060208311155b610a7c57600080fd5b600a84029350606060016040519080825280601f01601f191660200182016040528015610ab85781602001600182028038833980820191505090505b5090508360f81b81600081518110610acc57fe5b60200101907effffffffffffffffffffffffffffffffffffffffffffffffffffffffffffff1916908160001a905350606060206040519080825280601f01601f191660200182016040528015610b315781602001600182028038833980820191505090505b509050606060206040519080825280601f01601f191660200182016040528015610b6a5781602001600182028038833980820191505090505b5090506000610b77611086565b905060208352424118600143034018602084015260208252806020830152606060206040519080825280601f01601f191660200182016040528015610bcb5781602001600182028038833980820191505090505b509050886020820152606060086040519080825280601f01601f191660200182016040528015610c0a5781602001600182028038833980820191505090505b509050610c1d82601860088460006113a3565b50610c266126b0565b60405180608001604052808781526020018881526020018681526020018481525090506000610c8b6040518060400160405280600681526020017f72616e646f6d0000000000000000000000000000000000000000000000000000815250838c611402565b9050606060086040519080825280601f01601f191660200182016040528015610cc35781602001600182028038833980820191505090505b50905060208401517f0100000000000000000000000000000000000000000000000000000000000000810460278301537e01000000000000000000000000000000000000000000000000000000000000810460268301537d010000000000000000000000000000000000000000000000000000000000810460258301537c0100000000000000000000000000000000000000000000000000000000810460248301537b01000000000000000000000000000000000000000000000000000000810460238301537a010000000000000000000000000000000000000000000000000000810460228301537901000000000000000000000000000000000000000000000000008104602183015378010000000000000000000000000000000000000000000000008104602083015350610fe9828285600160048110610e0257fe5b6020020151600287600060048110610e1657fe5b60200201516040518082805190602001908083835b60208310610e4e5780518252602082019150602081019050602083039250610e2b565b6001836020036101000a038019825116818451168082178552505050505050905001915050602060405180830381855afa158015610e90573d6000803e3d6000fd5b5050506040513d6020811015610ea557600080fd5b810190808051906020019092919050505087600260048110610ec357fe5b60200201516040516020018085805190602001908083835b60208310610efe5780518252602082019150602081019050602083039250610edb565b6001836020036101000a03801982511681845116808217855250505050505090500184805190602001908083835b60208310610f4f5780518252602082019150602081019050602083039250610f2c565b6001836020036101000a03801982511681845116808217855250505050505090500183815260200182805190602001908083835b60208310610fa65780518252602082019150602081019050602083039250610f83565b6001836020036101000a0380198251168184511680821785525050505050509050019450505050506040516020818303038152906040528051906020012061176f565b8199505050505050505050509392505050565b600033905081600860008373ffffffffffffffffffffffffffffffffffffffff1673ffffffffffffffffffffffffffffffffffffffff16815260200190815260200160002060008201518160000155602082015181600101556040820151816002015560608201518160030160006101000a81548160ff0219169083151502179055509050505050565b60008073ffffffffffffffffffffffffffffffffffffffff16600160009054906101000a900473ffffffffffffffffffffffffffffffffffffffff1673ffffffffffffffffffffffffffffffffffffffff16148061110e5750600061110c600160009054906101000a900473ffffffffffffffffffffffffffffffffffffffff1661178b565b145b1561111f5761111d6000611796565b505b600160009054906101000a900473ffffffffffffffffffffffffffffffffffffffff1673ffffffffffffffffffffffffffffffffffffffff166338cc48316040518163ffffffff1660e01b8152600401602060405180830381600087803b15801561118957600080fd5b505af115801561119d573d6000803e3d6000fd5b505050506040513d60208110156111b357600080fd5b810190808051906020019092919050505073ffffffffffffffffffffffffffffffffffffffff166000809054906101000a900473ffffffffffffffffffffffffffffffffffffffff1673ffffffffffffffffffffffffffffffffffffffff16146112fc57600160009054906101000a900473ffffffffffffffffffffffffffffffffffffffff1673ffffffffffffffffffffffffffffffffffffffff166338cc48316040518163ffffffff1660e01b8152600401602060405180830381600087803b15801561128157600080fd5b505af1158015611295573d6000803e3d6000fd5b505050506040513d60208110156112ab57600080fd5b81019080805190602001909291905050506000806101000a81548173ffffffffffffffffffffffffffffffffffffffff021916908373ffffffffffffffffffffffffffffffffffffffff1602179055505b6000809054906101000a900473ffffffffffffffffffffffffffffffffffffffff1673ffffffffffffffffffffffffffffffffffffffff1663abaa5f3e6040518163ffffffff1660e01b815260040160206040518083038186803b15801561136357600080fd5b505afa158015611377573d6000803e3d6000fd5b505050506040513d602081101561138d57600080fd5b8101908080519060200190929190505050905090565b60606000828501905080845110156113ba57600080fd5b600086602001905060008460200190505b8688602001018210156113f357818901518082880152506020820191506020810190506113cb565b85935050505095945050505050565b60008073ffffffffffffffffffffffffffffffffffffffff16600160009054906101000a900473ffffffffffffffffffffffffffffffffffffffff1673ffffffffffffffffffffffffffffffffffffffff16148061148a57506000611488600160009054906101000a900473ffffffffffffffffffffffffffffffffffffffff1661178b565b145b1561149b576114996000611796565b505b600160009054906101000a900473ffffffffffffffffffffffffffffffffffffffff1673ffffffffffffffffffffffffffffffffffffffff166338cc48316040518163ffffffff1660e01b8152600401602060405180830381600087803b15801561150557600080fd5b505af1158015611519573d6000803e3d6000fd5b505050506040513d602081101561152f57600080fd5b810190808051906020019092919050505073ffffffffffffffffffffffffffffffffffffffff166000809054906101000a900473ffffffffffffffffffffffffffffffffffffffff1673ffffffffffffffffffffffffffffffffffffffff161461167857600160009054906101000a900473ffffffffffffffffffffffffffffffffffffffff1673ffffffffffffffffffffffffffffffffffffffff166338cc48316040518163ffffffff1660e01b8152600401602060405180830381600087803b1580156115fd57600080fd5b505af1158015611611573d6000803e3d6000fd5b505050506040513d602081101561162757600080fd5b81019080805190602001909291905050506000806101000a81548173ffffffffffffffffffffffffffffffffffffffff021916908373ffffffffffffffffffffffffffffffffffffffff1602179055505b606060046040519080825280602002602001820160405280156116af57816020015b606081526020019060019003908161169a5790505b509050836000600481106116bf57fe5b6020020151816000815181106116d157fe5b6020026020010181905250836001600481106116e957fe5b6020020151816001815181106116fb57fe5b60200260200101819052508360026004811061171357fe5b60200201518160028151811061172557fe5b60200260200101819052508360036004811061173d57fe5b60200201518160038151811061174f57fe5b60200260200101819052506117658582856117a7565b9150509392505050565b8060036000848152602001908152602001600020819055505050565b6000813b9050919050565b60006117a0611d09565b9050919050565b60008073ffffffffffffffffffffffffffffffffffffffff16600160009054906101000a900473ffffffffffffffffffffffffffffffffffffffff1673ffffffffffffffffffffffffffffffffffffffff16148061182f5750600061182d600160009054906101000a900473ffffffffffffffffffffffffffffffffffffffff1661178b565b145b156118405761183e6000611796565b505b600160009054906101000a900473ffffffffffffffffffffffffffffffffffffffff1673ffffffffffffffffffffffffffffffffffffffff166338cc48316040518163ffffffff1660e01b8152600401602060405180830381600087803b1580156118aa57600080fd5b505af11580156118be573d6000803e3d6000fd5b505050506040513d60208110156118d457600080fd5b810190808051906020019092919050505073ffffffffffffffffffffffffffffffffffffffff166000809054906101000a900473ffffffffffffffffffffffffffffffffffffffff1673ffffffffffffffffffffffffffffffffffffffff1614611a1d57600160009054906101000a900473ffffffffffffffffffffffffffffffffffffffff1673ffffffffffffffffffffffffffffffffffffffff166338cc48316040518163ffffffff1660e01b8152600401602060405180830381600087803b1580156119a257600080fd5b505af11580156119b6573d6000803e3d6000fd5b505050506040513d60208110156119cc57600080fd5b81019080805190602001909291905050506000806101000a81548173ffffffffffffffffffffffffffffffffffffffff021916908373ffffffffffffffffffffffffffffffffffffffff1602179055505b60008060009054906101000a900473ffffffffffffffffffffffffffffffffffffffff1673ffffffffffffffffffffffffffffffffffffffff16632ef3accc86856040518363ffffffff1660e01b81526004018080602001838152602001828103825284818151815260200191508051906020019080838360005b83811015611ab3578082015181840152602081019050611a98565b50505050905090810190601f168015611ae05780820380516001836020036101000a031916815260200191505b509350505050602060405180830381600087803b158015611b0057600080fd5b505af1158015611b14573d6000803e3d6000fd5b505050506040513d6020811015611b2a57600080fd5b81019080805190602001909291905050509050823a02670de0b6b3a764000001811115611b5d576000801b915050611d02565b6060611b6885612260565b90506000809054906101000a900473ffffffffffffffffffffffffffffffffffffffff1673ffffffffffffffffffffffffffffffffffffffff1663c55c1cb68360008985896040518663ffffffff1660e01b8152600401808581526020018060200180602001848152602001838103835286818151815260200191508051906020019080838360005b83811015611c0c578082015181840152602081019050611bf1565b50505050905090810190601f168015611c395780820380516001836020036101000a031916815260200191505b50838103825285818151815260200191508051906020019080838360005b83811015611c72578082015181840152602081019050611c57565b50505050905090810190601f168015611c9f5780820380516001836020036101000a031916815260200191505b5096505050505050506020604051808303818588803b158015611cc157600080fd5b505af1158015611cd5573d6000803e3d6000fd5b50505050506040513d6020811015611cec57600080fd5b8101908080519060200190929190505050925050505b9392505050565b600080611d29731d3b2638a7cc9f2cb3d298a3da7a90b67e5506ed61178b565b1115611dcb57731d3b2638a7cc9f2cb3d298a3da7a90b67e5506ed600160006101000a81548173ffffffffffffffffffffffffffffffffffffffff021916908373ffffffffffffffffffffffffffffffffffffffff160217905550611dc26040518060400160405280600b81526020017f6574685f6d61696e6e65740000000000000000000000000000000000000000008152506122e0565b6001905061225d565b6000611dea73c03a2615d5efaf5f49f60b7bb6583eaec212fdf161178b565b1115611e8c5773c03a2615d5efaf5f49f60b7bb6583eaec212fdf1600160006101000a81548173ffffffffffffffffffffffffffffffffffffffff021916908373ffffffffffffffffffffffffffffffffffffffff160217905550611e836040518060400160405280600c81526020017f6574685f726f707374656e3300000000000000000000000000000000000000008152506122e0565b6001905061225d565b6000611eab73b7a07bcf2ba2f2703b24c0691b5278999c59ac7e61178b565b1115611f4d5773b7a07bcf2ba2f2703b24c0691b5278999c59ac7e600160006101000a81548173ffffffffffffffffffffffffffffffffffffffff021916908373ffffffffffffffffffffffffffffffffffffffff160217905550611f446040518060400160405280600981526020017f6574685f6b6f76616e00000000000000000000000000000000000000000000008152506122e0565b6001905061225d565b6000611f6c73146500cfd35b22e4a392fe0adc06de1a1368ed4861178b565b111561200e5773146500cfd35b22e4a392fe0adc06de1a1368ed48600160006101000a81548173ffffffffffffffffffffffffffffffffffffffff021916908373ffffffffffffffffffffffffffffffffffffffff1602179055506120056040518060400160405280600b81526020017f6574685f72696e6b6562790000000000000000000000000000000000000000008152506122e0565b6001905061225d565b600061202d73a2998efd205fb9d4b4963afb70778d6354ad3a4161178b565b11156120cf5773a2998efd205fb9d4b4963afb70778d6354ad3a41600160006101000a81548173ffffffffffffffffffffffffffffffffffffffff021916908373ffffffffffffffffffffffffffffffffffffffff1602179055506120c66040518060400160405280600a81526020017f6574685f676f65726c69000000000000000000000000000000000000000000008152506122e0565b6001905061225d565b60006120ee736f485c8bf6fc43ea212e93bbf8ce046c7f1cb47561178b565b111561215257736f485c8bf6fc43ea212e93bbf8ce046c7f1cb475600160006101000a81548173ffffffffffffffffffffffffffffffffffffffff021916908373ffffffffffffffffffffffffffffffffffffffff1602179055506001905061225d565b60006121717320e12a1f859b3feae5fb2a0a32c18f5a65555bbf61178b565b11156121d5577320e12a1f859b3feae5fb2a0a32c18f5a65555bbf600160006101000a81548173ffffffffffffffffffffffffffffffffffffffff021916908373ffffffffffffffffffffffffffffffffffffffff1602179055506001905061225d565b60006121f47351efaf4c8b3c9afbd5ab9f4bbc82784ab6ef8faa61178b565b1115612258577351efaf4c8b3c9afbd5ab9f4bbc82784ab6ef8faa600160006101000a81548173ffffffffffffffffffffffffffffffffffffffff021916908373ffffffffffffffffffffffffffffffffffffffff1602179055506001905061225d565b600090505b90565b606061226a6122fa565b6122726126d7565b61227e81610400612306565b61228781612350565b60008090505b83518110156122c9576122bc8482815181106122a557fe5b60200260200101518361235e90919063ffffffff16565b808060010191505061228d565b506122d381612383565b8060000151915050919050565b80600290805190602001906122f69291906126f1565b5050565b60405180590338823950565b600081905060006020828161231757fe5b0614612330576020818161232757fe5b06602003810190505b808360200181815250506040518084526000815281810160405250505050565b61235b816004612391565b50565b61236b82600283516123b2565b61237e81836124f290919063ffffffff16565b505050565b61238e816007612391565b50565b6123ae601f60058360ff16901b178361259d90919063ffffffff16565b5050565b601781116123de576123d98160058460ff16901b60ff16178461259d90919063ffffffff16565b6124ed565b60ff811161241f57612403601860058460ff16901b178461259d90919063ffffffff16565b612419816001856125dd9092919063ffffffff16565b506124ec565b61ffff811161246157612445601960058460ff16901b178461259d90919063ffffffff16565b61245b816002856125dd9092919063ffffffff16565b506124eb565b63ffffffff81116124a557612489601a60058460ff16901b178461259d90919063ffffffff16565b61249f816004856125dd9092919063ffffffff16565b506124ea565b67ffffffffffffffff81116124e9576124d1601b60058460ff16901b178461259d90919063ffffffff16565b6124e7816008856125dd9092919063ffffffff16565b505b5b5b5b5b505050565b6124fa6126d7565b8260200151836000015151835101111561252a5761252983600261252386602001518651612644565b02612660565b5b60008060008451905085518051602081830101945086518101825260208701935050505b60208110612571578151835260208301925060208201915060208103905061254e565b60006001826020036101000a039050801983511681855116818117865250508694505050505092915050565b816020015160018360000151510111156125c3576125c2826002846020015102612660565b5b815180516020818301018381536001820183525050505050565b6125e56126d7565b8360200151846000015151830111156126135761261284600261260c876020015186612644565b02612660565b5b60006001836101000a0390508451805184818301018684198251161781528582018352505050849150509392505050565b6000818311156126565782905061265a565b8190505b92915050565b6060826000015190506126738383612306565b61267d83826124f2565b50505050565b60405180608001604052806000815260200160008152602001600080191681526020016000151581525090565b60405180608001604052806004905b60608152602001906001900390816126bf5790505090565b604051806040016040528060608152602001600081525090565b828054600181600116156101000203166002900490600052602060002090601f016020900481019282601f1061273257805160ff1916838001178555612760565b82800160010185558215612760579182015b8281111561275f578251825591602001919060010190612744565b5b50905061276d9190612771565b5090565b61279391905b8082111561278f576000816000905550600101612777565b5090565b9056fe50726f7661626c65207175657279207761732073656e742c207374616e64696e6720627920666f722074686520616e737765722ea265627a7a723158201584eb0b043b30996612bdfac6fe2dd4b817bda75163c9a3fdb53d02c7065ad464736f6c6343000510003250726f7661626c65207175657279207761732073656e742c207374616e64696e6720627920666f722074686520616e737765722e",
  "source": "import \"./provableAPI.sol\";\r\npragma solidity 0.5.16;\r\n\r\ncontract Coinflip is usingProvable{\r\n\r\n      uint256 NUM_RANDOM_BYTES_REQUESTED = 1;\r\n      uint256 latestNumber;\r\n\r\n      struct Bet {\r\n        uint id;\r\n        uint amount;\r\n        bytes32 queryId;\r\n        bool won;\r\n      }\r\n\r\n      event logNewProvableQuery(string description);\r\n      event generatedRandomNumber(uint256 randomNumber);\r\n      event betCreated(uint id, uint amount);\r\n      event betSettled(uint id, uint amount, bool won);\r\n\r\n      constructor()\r\n      public\r\n      {\r\n        update();\r\n      }\r\n\r\n      uint public balance;\r\n\r\n      modifier costs(uint cost){\r\n          require(msg.value >= cost);\r\n          _;\r\n      }\r\n\r\n      mapping (address => Bet) private bets;\r\n      address[] private creators;\r\n\r\n      function __callback(bytes32 _queryId, string memory _result, bytes memory _proof) public {\r\n        //require(msg.sender == provable_cbAddress());\r\n        uint256 randomNumber = uint256(keccak256(abi.encodePacked(_result))) % 2;\r\n        latestNumber = randomNumber;\r\n        emit generatedRandomNumber(randomNumber);\r\n      }\r\n\r\n      function update() public payable {\r\n        uint256 query_execution_delay = 0;\r\n        uint256 gas_for_callback = 200000;\r\n        bets[msg.sender].queryId = testRandom();\r\n        bets[msg.sender].queryId = provable_newRandomDSQuery(query_execution_delay, NUM_RANDOM_BYTES_REQUESTED, gas_for_callback);\r\n        emit logNewProvableQuery(\"Provable query was sent, standing by for the answer.\");\r\n      }\r\n\r\n      function testRandom() public returns(bytes32){\r\n        bytes32 queryId = bytes32(keccak256(abi.encodePacked(msg.sender)));\r\n        __callback(queryId, \"1\", bytes(\"test\"));\r\n        return queryId;\r\n      }\r\n\r\n      function createBet() public payable costs(1 ether){\r\n        //require(balance >= 2 ether);\r\n        require(msg.value >= 1 ether);\r\n        balance += msg.value;\r\n\r\n          //This creates a bet\r\n          Bet memory newBet;\r\n          newBet.amount = 1000000000000000000;\r\n\r\n          insertBet(newBet);\r\n          creators.push(msg.sender);\r\n\r\n          newBet.id = creators.length;\r\n\r\n          emit betCreated(newBet.id, newBet.amount);\r\n      }\r\n\r\n      function getBalance() public view returns (uint bal){\r\n        return balance;\r\n      }\r\n\r\n      function deposit() public payable{\r\n        balance += msg.value;\r\n      }\r\n\r\n      function insertBet(Bet memory newBet) private {\r\n          address creator = msg.sender;\r\n          bets[creator] = newBet;\r\n      }\r\n\r\n      function settleBet() public view returns(uint256 num){\r\n        return latestNumber;\r\n      }\r\n\r\n      function payOut() public payable{\r\n        require(balance >= 2 ether);\r\n        msg.sender.transfer(2 ether);\r\n      }\r\n\r\n      function closeBet(uint256 num) public{\r\n        if(num == 0){\r\n          bets[msg.sender].won = true;\r\n        }\r\n        else{\r\n          bets[msg.sender].won = false;\r\n        }\r\n        emit betSettled(bets[msg.sender].id, bets[msg.sender].amount, bets[msg.sender].won);\r\n      }\r\n}\r\n",
  "sourcePath": "C:/JS/IvanOnTech/ETH201/CoinflipContract/contracts/coinflip.sol",
  "compiler": {
    "name": "solc",
    "version": "0.5.16+commit.9c3226ce.Emscripten.clang"
  },
  "schemaVersion": "3.3.3",
  "updatedAt": "2021-01-17T20:31:11.797Z",
  "networkType": "ethereum",
  "devdoc": {
    "methods": {
      "__callback(bytes32,string)": {
        "details": "The following `__callback` functions are just placeholders ideally     meant to be defined in child contract when proofs are used.     The function bodies simply silence compiler warnings."
      }
    }
  },
  "userdoc": {
    "methods": {}
  }
}